:020000040000FA
:06000000C3EF0FF0120037
:06002A000100102000009F
:08003000000100001E000000A9
:08003800D9CFE6FFE1CFD9FFAB
:10004000FD0EDB50A96EFC0EDB50A86EA69EA69C92
:10005000A684F29E550EA76EAA0EA76EA682F28EF9
:10006000A1A8FED7A198E552E7CFD9FF1200D9CFBA
:10007000E6FFE1CFD9FFFB0EDBCFE9FFFC0EDBCFC4
:10008000EAFFEF5021E0FB0EDBCFE9FFFC0EDBCFF8
:10009000EAFFEF50E66EFD0EDBCFE6FFFE0EDBCF94
:1000A000E6FFCADFE552E552E552FD0EDB2AFE0E01
:1000B00001E3DB2AFB0EDBCFE9FFDB2AFC0EDBCF03
:1000C000EAFF01E3DB2AD7D7E552E7CFD9FF1200D9
:1000D000D9CFE6FFE1CFD9FFFD0EDB50A96EA69484
:1000E000A69EA680A85000D0E552E7CFD9FF120007
:1000F000C580C750040B01E0010E146E1F0EC5141D
:10010000141001E0F6D7D00EE66E5CEC0FF0E5526D
:10011000C750040B01E0010E146E1F0EC51414101D
:1001200001E0F6D7E66A5CEC0FF0E552C750040B2D
:1001300001E0010E146E1F0EC514141001E0F6D775
:10014000C582C750040B01E0010E146E1F0EC514CA
:10015000141001E0F6D7D10EE66E5CEC0FF0E5521C
:10016000C750040B01E0010E146E1F0EC5141410CD
:1001700001E0F6D701EC10F00001A26FA36BC750AD
:10018000040B01E0010E146E1F0EC514141001E0E3
:10019000F6D7C59AC588C750040B01E0010E146E4E
:1001A0001F0EC514141001E0F6D701EC10F0000189
:1001B000A46FA56BC750040B01E0010E146E1F0E57
:1001C000C514141001E0F6D7C59AC588C750040BB2
:1001D00001E0010E146E1F0EC514141001E0F6D7D5
:1001E00001EC10F00001A06FA16BC750040B01E0FF
:1001F000010E146E1F0EC514141001E0F6D7C58A47
:10020000C588C750040B01E0010E146E1F0EC51403
:10021000141001E0F6D7C5841200D9CFE6FFE1CF74
:10022000D9FF030EE1260A0E146E14C00EF0FE0E66
:10023000DBCF09F087EC0CF00950DF6EFE0EDBCF50
:1002400014F014C009F00A0E0E6E87EC0CF0010ECB
:1002500005C0DBFFDBCFE6FFDF38F00BE552E7241C
:10026000E76E020EE7CFDBFFDB50146E030EE15C9E
:1002700003E200D0E16AE552E16E1450E552E7CFA7
:10028000D9FF1200D9CFE6FFE1CFD9FFC580C75013
:10029000040B01E0010E146E1F0EC514141001E0D2
:1002A000F6D7D00EE66E5CEC0FF0E552C750040BAB
:1002B00001E0010E146E1F0EC514141001E0F6D7F4
:1002C000E66A5CEC0FF0E552C750040B01E0010E4A
:1002D000146E1F0EC514141001E0F6D7FC0EDBCF10
:1002E000E6FF9BDFE552E76EFC0EE7CFDBFFFC0E7F
:1002F000DBCFE6FF5CEC0FF0E552C750040B01E0EA
:10030000010E146E1F0EC514141001E0F6D7FD0E79
:10031000DBCFE6FF82DFE552E76EFD0EE7CFDBFFC6
:10032000FD0EDBCFE6FF5CEC0FF0E552C750040B8F
:1003300001E0010E146E1F0EC514141001E0F6D773
:10034000FE0EDBCFE6FF69DFE552E76EFE0EE7CF7C
:10035000DBFFFE0EDBCFE6FF5CEC0FF0E552C75093
:10036000040B01E0010E146E1F0EC514141001E001
:10037000F6D7C584E552E7CFD9FF1200D9CFE6FF03
:10038000E1CFD9FF700EE76EFD0EDBCF16F0FE0E4B
:10039000DBCF17F0E7501616176A040ED890173205
:1003A0001632E804FBE10A0E1702F3CF17F016022B
:1003B000F3CF16F0F45017260F0EE76EFD0EDBCFCD
:1003C00018F0FE0EDBCF19F0E7501816196A165018
:1003D0001824146E17501920156EFD0E14C0DBFF83
:1003E000FE0E15C0DBFFFD0EDBCF14F0FE0EDBCFE3
:1003F00015F014C0F3FF15C0F4FF00D0E552E7CFAD
:10040000D9FF1200D9CFE6FFE1CFD9FF090EE126CF
:10041000DF6A010EDB6A020EDB6A030EDB6A040E82
:10042000DB6A080EDB6A926A8090A80EE66EB3EC77
:100430000FF0E552926880B0FED780A0FED780B062
:10044000FED7060EDB6A050EF36E060EDBCFF4FF59
:10045000F350F45C39E2050EDB6A080EF36E050E0C
:10046000DBCFF4FFF350F45C2CE280A0FED70A0E41
:10047000E66EEDEC0FF0E55280A01ED0050EDBCF4E
:10048000E6FF070EE552D880E754176E010E1752AB
:1004900004E0E846FE0B1706FCE1166ED9CF14F017
:1004A000DACF15F0060EDB500F011424E96E000EB2
:1004B0001520EA6E1650EF1280B0FED7050EDB2A2B
:1004C000CCD7060EDB2ABFD7030EDBCFE6FF020E2A
:1004D000DBCFE6FF010EDB50DF24E552E724E552D7
:1004E000E724E76E070EE7CFDBFF040EDB50F36E69
:1004F000070EDB50F35C03E0F36AF46A32D0FE0EC1
:10050000DB5015E1020EDB50146E156A14C015F0B5
:10051000146A030EDB5000011424F36F000E152043
:10052000F46FF3C0F3FFF4C0F4FF1BD016D0FE0E3F
:10053000DB0413E1DF50146E156A14C015F0146A61
:10054000010EDB5000011424F16F000E1520F26F34
:10055000F1C0F3FFF2C0F4FF04D0010EF36EF46AB1
:1005600000D0090EE15C02E2E16AE552E16EE5527B
:10057000E7CFD9FF1200D9CFE6FFE1CFD9FFE6528E
:10058000E552E552E7CFD9FF1200956A900E946EBE
:100590000F0EC16E330EE66EE66A780EE66EDBEC89
:1005A0000DF0E552E552E552C00EE66E080EE66E1D
:1005B00041EC0FF0E552E552C70EC86E0001A06B8A
:1005C000A16BA46BA56BA26BA36B020EE66EE66A31
:1005D0007FDDE552E5520101046F056B800B01E000
:1005E0000569010EE66EE66A73DDE552E55201012A
:1005F000066F076B800B01E007690A0E106F116B25
:10060000126B136B146B156B1A6B1B6BE66AFADEBD
:10061000E552F3CF08F1F4CF09F1010EE66EF2DEF8
:10062000E552F3CF0AF1F4CF0BF108C10CF109C187
:100630000DF10A0E0D6E0E6A0CC108F00DC109F025
:10064000A1EC0CF004C00CF105C00DF10AC10EF1D3
:100650000BC10FF10A0E0D6E0E6A0EC108F00FC12C
:1006600009F0A1EC0CF004C00EF105C00FF108C1B7
:1006700000F109C101F10A0E0D6E0E6A00C108F009
:1006800001C109F0A1EC0CF008C000F109C001F1B2
:100690000AC102F10BC103F10A0E0D6E0E6A02C10E
:1006A00008F003C109F0A1EC0CF008C002F109C088
:1006B00003F11EDDA2C0E6FFA3C0E6FF5FDEE55248
:1006C000E552F3CFA2F0F4CFA3F0A0C0E6FFA1C0A3
:1006D000E6FF54DEE552E552F3CFA0F0F4CFA1F0EF
:1006E000A4C0E6FFA5C0E6FF49DEE552E552F3CF20
:1006F000A4F0F4CFA5F022EC0FF00001EF6FACA254
:10070000FED70001EF5101E18FD0610EEF5D0BE1EB
:10071000010EE66ECC0EE66E000EE66E83EC0EF079
:10072000E552E552E552620E0001EF5D04E183906F
:10073000A86BA96BCC6B630EEF5D1AE1010EE66E40
:10074000D30EE66E000EE66E83EC0EF0E552E55237
:10075000E552D3C004F10101056B04BF056904C172
:10076000E6FF020EE66EE66A67DCE552E552E55208
:10077000640E0001EF5D1AE1010EE66EDA0EE66E20
:10078000000EE66E83EC0EF0E552E552E552DAC05B
:1007900006F10101076B06BF076906C1E6FF010EFE
:1007A000E66EE66A49DCE552E552E552670E000165
:1007B000EF5D1CE1D36BDA6BCC6B0101066B076B51
:1007C000046B056BE66A020EE66EE66A35DCE552FE
:1007D000E552E552E66A010EE66EE66A2DDCE55268
:1007E000E552E5520001A86BA96B8390680EEF5D9E
:1007F00004E1010E0101126F136B700E0001EF5D39
:1008000004E1010E0101146F156B760E0001EF5D1E
:1008100004E1010E01011A6F1B6B690E0001EF5D0F
:1008200003E101011A6B1B6B0101010E1A1901E1B1
:100830001B5101E0E1D10A0E101901E1115101E053
:10084000B7D0010E121901E1135101E0B1D01451DA
:10085000151101E0ADD083A030D00EC1E6FF0FC16D
:10086000E6FF02C1E6FF03C1E6FF0CC1E6FF0DC1D2
:10087000E6FF00C1E6FF01C1E6FFA20E146E1D0EE9
:10088000156E166A14C0E6FF15C0E6FF16C0E6FF37
:10089000800EE66E000EE66EF4EC0CF0176E0D0E98
:1008A000E15E1750800EE66E000EE66ED8EC0EF09C
:1008B000E552E552ACA2FED778D0010E181901E13D
:1008C000195144E1CCC014F0156A14BE156814C067
:1008D000E6FF15C0E6FF06C1E6FF07C1E6FF04C15B
:1008E000E6FF05C1E6FF0EC1E6FF0FC1E6FF02C14C
:1008F000E6FF03C1E6FF0CC1E6FF0DC1E6FF00C144
:10090000E6FF01C1E6FF8A0E166E1D0E176E186A0D
:1009100016C0E6FF17C0E6FF18C0E6FF800EE66EC1
:10092000000EE66EF4EC0CF0196E130EE15E195039
:10093000800EE66E000EE66ED8EC0EF0E552E55243
:10094000ACA2FED70101186B196B25D00EC1E6FFD2
:100950000FC1E6FF02C1E6FF03C1E6FF0CC1E6FFDF
:100960000DC1E6FF00C1E6FF01C1E6FF7C0E146E7B
:100970001D0E156E166A14C0E6FF15C0E6FF16C000
:10098000E6FF800EE66E000EE66EF4EC0CF0176EDD
:100990000D0EE15E1750800EE66E000EE66ED8EC8E
:1009A0000EF0E552E552ACA2FED70101106B116BBF
:1009B0001251131101E08AD01451151101E086D0B3
:1009C00083A041D0CCC014F0156A14BE156814C0C1
:1009D000E6FF15C0E6FF06C1E6FF07C1E6FF04C15A
:1009E000E6FF05C1E6FF0EC1E6FF0FC1E6FF02C14B
:1009F000E6FF03C1E6FF0CC1E6FF0DC1E6FF00C143
:100A0000E6FF01C1E6FF640E166E1D0E176E186A32
:100A100016C0E6FF17C0E6FF18C0E6FF800EE66EC0
:100A2000000EE66EF4EC0CF0196E130EE15E195038
:100A3000800EE66E000EE66ED8EC0EF0E552E55242
:100A4000ACA2FED740D0CCC014F0156A14BE156815
:100A500014C0E6FF15C0E6FF06C1E6FF07C1E6FFCA
:100A600004C1E6FF05C1E6FF0EC1E6FF0FC1E6FFC8
:100A700002C1E6FF03C1E6FF0CC1E6FF0DC1E6FFC0
:100A800000C1E6FF01C1E6FF8A0E166E1D0E176E4D
:100A9000186A16C0E6FF17C0E6FF18C0E6FF800E12
:100AA000E66E000EE66EF4EC0CF0196E130EE15ECD
:100AB0001950800EE66E000EE66ED8EC0EF0E55290
:100AC000E552ACA2FED70101106B116B010E121999
:100AD00001E1135101E090D0010E141901E115510B
:100AE00001E08AD083A041D0CCC014F0156A14BEB6
:100AF000156814C0E6FF15C0E6FF06C1E6FF07C192
:100B0000E6FF04C1E6FF05C1E6FF0EC1E6FF0FC127
:100B1000E6FF02C1E6FF03C1E6FF0CC1E6FF0DC11F
:100B2000E6FF00C1E6FF01C1E6FF640E166E1D0E72
:100B3000176E186A16C0E6FF17C0E6FF18C0E6FF7A
:100B4000800EE66E000EE66EF4EC0CF0196E130EDD
:100B5000E15E1950800EE66E000EE66ED8EC0EF0E7
:100B6000E552E552ACA2FED740D0CCC014F0156AD5
:100B700014BE156814C0E6FF15C0E6FF06C1E6FF07
:100B800007C1E6FF04C1E6FF05C1E6FF0EC1E6FFAF
:100B90000FC1E6FF02C1E6FF03C1E6FF0CC1E6FF9D
:100BA0000DC1E6FF00C1E6FF01C1E6FF8A0E166E29
:100BB0001D0E176E186A16C0E6FF17C0E6FF18C0B4
:100BC000E6FF800EE66E000EE66EF4EC0CF0196E99
:100BD000130EE15E1950800EE66E000EE66ED8EC44
:100BE0000EF0E552E552ACA2FED70101146B156B75
:100BF000106B116B126B136B000E0001E76ECC19BA
:100C0000E8AE02D0CC3503D0E750D880CC5531E2E5
:100C10000101165117111CE1CCC014F0156A14BE65
:100C2000156814500001A225A86F1550A321A96FC3
:100C30008380A93504E2A8513C08000EA95504E2BE
:100C40003C0EA85F000EA95B010E0101166F176B29
:100C50000001A251A81902E1A351A9190AE1839048
:100C6000CC6BA86BA96B0101166B176B010E186F8B
:100C7000196B0101053504E204510008000E055509
:100C80002FE2073504E206510008000E075528E25E
:100C900005510119E8AE02D0013504D00051045DC0
:100CA0000151055917E303510719E8AE02D0073582
:100CB00004D00651025D075103590CE30001A9510C
:100CC000A519E8AE02D0A53504D0A451A85DA55160
:100CD000A95905E2838000010A0ECC6F01D08390F0
:0C0CE0000101102B000E112391D4120012
:040CEC00B2EC0BF06B
:100CF000FB0EDBCFF3FFDB06F35000090AE000EC4C
:100D00000CF0FA0E6BEC0CF0F3E1151CF1E1010EA6
:100D100001D0000EE1EF0BF0B2EC0BF03B0EE12442
:100D200002E3E168E652E16E010EDB6A020EDB6A65
:100D3000F90EDBCFF6FFFA0EDBCFF7FFFB0EDBCFB2
:100D4000F8FF0800F550DF6EDF5002E105EF0BF011
:100D5000250EDF5C02E0F8EF0AF0030EDB6A040EFA
:100D6000DB6A050EDB6A060EDB6A070EDB6A1AEC2D
:100D70000BF02D0EDF5C0CE02B0EDF5C09E0200E8B
:100D8000DF5C06E0230EDF5C03E0300EDF5C1AE17F
:100D9000DF50300A14E0130A0FE0030A0AE00B0ADE
:100DA00005E0060AE4E1030EDB80E1D7030EDB82F7
:100DB000DED7030EDB84DBD7030EDB86D8D7030E2A
:100DC000DB88D5D72A0EDF5C1BE116EC0BF064EC58
:100DD0000BF010E0030EDB8008680968130EDBCF10
:100DE0000DF0140EDBCF0EF0C7EC0CF0040E06C0B5
:100DF000DBFF03D0130E4DEC0BF01AEC0BF00BD015
:100E0000090EDB6ABBEC0BF003E02FEC0CF0FAD719
:100E1000090E4DEC0BF0030EDBB0DB982E0EDF5C01
:100E20001BE11AEC0BF02A0EDF5C0BE116EC0BF069
:100E300064EC0BF003E1130E9FEC0BF01AEC0BF0DB
:100E40000BD0090EDB6ABBEC0BF003E02FEC0CF0CF
:100E5000FAD7090E9FEC0BF0680EDF5C07E11AEC85
:100E60000BF0680EDF5C1DE1030E18D0740EDF5C22
:100E700017E07A0EDF5C14E0480EDF5C06E0540EEB
:100E8000DF5C03E05A0EDF5C02E1020E07D06C0E5D
:100E9000DF5C03E06A0EDF5C04E1010EF2EC0BF0B4
:100EA000C9DBDF506E0A01E17FD31E0A01E192D156
:100EB000200A01E18FD13F0A01E149D11A0A01E17B
:100EC00046D10D0A01E143D1200A01E140D13A0A9D
:100ED00001E13DD1200A01E13AD1260A01E135D1F3
:100EE0000D0A01E132D11A0A01E1D9D0200A4AE003
:100EF000300A1FE0460A0EE0250A01E083D3D950EC
:100F0000F90FE96EFF0EDA20EA6E010EEE5E000EBA
:100F1000EE5AEE5A00EC0CF0250EE66E95DB03E17E
:100F2000151C01E169D3FCEC0BF001E26BD3DB2A69
:100F300069D3080EDB6A040EDB50010806E2040EDA
:100F4000DB04C4EC0BF0DB508BDB080EDB5009E05C
:100F5000030EDB50010B05E172DB01E04DD3080EFF
:100F6000DB6A64DBEFCFDFFF74EC0CF003E1151CF0
:100F700001E142D3FCEC0BF001E3DB2A60DB01E191
:100F800041D33AD3070EDB5002080FE140EC0CF0DE
:100F9000030E07EC0CF00E0EEECFDBFF0F0EEECFC4
:100FA000DBFF100EEECFDBFF20D0F70EDBCF17F00C
:100FB000F80EDBCF18F0020E175E000E185AF70E6F
:100FC00017C0DBFFF80E18C0DBFF17C0E9FF18C021
:100FD000EAFFF7EC0BF0166A0E0E14C0DBFF0F0EE3
:100FE00015C0DBFF100E16C0DBFF0E0EDBCFE6FFD9
:100FF0000F0EDBCFE6FF100EDBCFE6FF5EEC0EF050
:10100000E552E552E552130E07C0DBFF140E08C08F
:10101000DBFF060EDB5005E0130E3BEC0CF001E2AB
:101020006ADB5FEC0CF002E2130E37DB22EC0CF013
:1010300006E0040E3BEC0CF002E2050E2EDB030E84
:10104000DBB005D0FCDA01E0D7D2080EDB6A090E6E
:10105000DB6A0E0EDBCFF6FF0F0EDBCFF7FF100EB5
:10106000DBCFF8FF0800F550DF6EDF5014E065ECD1
:101070000CF011E274EC0CF003E1151C01E1BCD2A0
:10108000BBDB01E3DB2A090EDB2AD9500E0FE96E28
:10109000000ECBDBE7D7D3DA01E1B4D2ADD2C6DAAA
:1010A000110EEECFDBFF120EEDCFDBFF110EDBCF0B
:1010B000E6FF120EDBCFE6FF50EC0EF0E552E552F4
:1010C000130EF3CFDBFF140EF4CFDBFF060EDB5065
:1010D00004E0130ED0DB01E20EDB5FEC0CF002E269
:1010E000130EDBDAAFDB05E0040EC5DB02E2050E12
:1010F000D4DA030EDBB005D0A2DA01E07DD2080E0F
:10110000DB6A090EDB6A110EDBCFE9FF120EDBCFC3
:10111000EAFFEFCFDFFFDF5014E0D7DB12E2E4DBC2
:1011200003E1151C01E168D267DB01E3DB2A090E4C
:10113000DB2A110EDB2ADBCFE9FF120EE8E3DB2A04
:10114000E6D77DDA01E15ED257D2030EDB8E070EC1
:10115000DB0410E195DB040E5ADB0A0EEECFDBFF59
:101160000B0EEECFDBFF0C0EEECFDBFF0D0EEECF46
:10117000DBFF6CD0070EDB5003082CE1030EDBAE67
:101180000DD0B2DA020E76DAEFCF14F0156A166AD5
:10119000176A14AE39D01568166835D0F70EDBCF54
:1011A00015F0F80EDBCF16F0020E155E000E165A83
:1011B000F70E15C0DBFFF80E16C0DBFF15C0E9FF08
:1011C00016C0EAFFEFCF14F00A0E14C0DBFF0B0EBF
:1011D000DB6A38D0070EDB50020809E1030EDBAEF4
:1011E00004D059DB16AE10D00ED055DB0DD0030E57
:1011F000DBAE12D079DA020E3DDAF9DA166A176A36
:1012000015AE02D016681768E2DA0C0E16C0DBFFC6
:101210000D0E17C0DBFF1AD0F70EDBCF16F0F80E5D
:10122000DBCF17F0020E165E000E175AF70E16C02F
:10123000DBFFF80E17C0DBFF16C0E9FF17C0EAFF9F
:10124000D6DAC5DA0C0EDB6A0D0EDB6A060EDB5051
:1012500005E1010EF36E050EF3CFDBFF150EDB6A21
:10126000160EDB6AD950370F146E000EDA20156E99
:10127000390E14C0DBFF3A0E15C0DBFF380EDB6AF7
:10128000080EDB6A0A0EAEDADF50780A12E0200A96
:1012900010E0280A0CE0200A0AE03F0A06E00D0AE6
:1012A00002E0200A08E1020E05D0080E03D0080E65
:1012B000DF26100E97DA030EDBBE02D0DB92DB9442
:1012C000DB50800B24E08ADAD890030EEB50000A42
:1012D00008E6000EEE5C000EEE58000EEE58000E12
:1012E000EE5815E213DA0B680C680D680E6818ECFE
:1012F0000EF00A0E02C0DBFF0B0E03C0DBFF0C0E6C
:1013000004C0DBFF0D0E05C0DBFF2D0E08D0030E61
:10131000DBA202D02B0E03D0DBA408D0200EF36E8C
:10132000170EF3CFDBFF150EDB2A02D0170EDB6A98
:10133000050EDB5003E1B7D901E189D0F00E146E40
:101340001F0E156E000E166E070EDBCF17F0186A13
:10135000196A1A6A17C00BF018C00CF019C00DF00A
:101360001AC00EF0D3D9FEEC0EF014500224F36E26
:1013700015500320F46E16500420F86EF4CFF7FFDA
:10138000F3CFF6FF0800090EF5CFDBFF580EDF5C48
:101390000FE1610EF36E090E7BD90AE3200E146E85
:1013A000090EDBCFE7FF1450E75E090EE7CFDBFF46
:1013B000070EDBCF14F0156A166A176A0FDA14C02D
:1013C0000BF015C00CF016C00DF017C00EF0EECFEC
:1013D00006F0EECF07F0EECF08F0EFCF09F0FEEC0D
:1013E0000EF009C0EDFF08C0EDFF07C0EDFF06C01D
:1013F000EFFF390EDBCFE9FFDB063A0EDBCFEAFF6A
:1014000001E2DB06090EDBCFEFFF150EDB2A4BD91D
:1014100095E1030EDBA61DD06F0EDF5C06E1C1D99E
:1014200018E3150EDB285BDA14D0780EDF5C09E0D8
:10143000580EDF5C06E0620EDF5C03E0420EDF5C0C
:1014400008E1020EF36E160EF3CFDBFF02D0150E8D
:10145000DB6A030EDB50100B0EE0040EDBCF14F042
:10146000050EDB50D880145406E2060EDB5003E173
:10147000040EDB5034DA95D90AE2050EDBCFE7FF24
:10148000150EDB50E75E050EE7CFDBFF02D0050E41
:10149000DB6A040EDBCF14F0160E45D9D880145445
:1014A00014E2160EDBCFE6FF150EDBCFE6FF040ECF
:1014B000DBCFE6FF050EDB50E552E75CE552D88056
:1014C000E754E552D880E7545FD9030EDB50010B97
:1014D0000BE1080EDB5008E0B2D801E08DD0080E19
:1014E000DB50BED8080EDB6A170EDB5007E088D948
:1014F000170EF1D903E1151C01E17ED0160EDB5069
:1015000016E07ED9300EE66E9FD802E1151C74E01D
:1015100077D9DFCFE6FF99EC0DF0E552E552E552C1
:10152000F4CF15F00001F31C02E1151C65E0050E77
:10153000DBCF14F0160EDB50D880145409E2050EF0
:10154000DBCFE7FF160EDB50E75E050EE7CFDBFFD4
:10155000300EE66E050ECBD94FE1390EDB2ADBCF1C
:10156000E9FF3A0E01E3DB2ADBCFEAFF090EEFCFFA
:10157000DBFFDB500EE044D9090EADD902E1151CAA
:101580003BE0390EDB2ADBCFE9FF3A0EEDE3DB2A45
:10159000EBD755D831E1160EDBCFE6FF080EC3D8E6
:1015A000E552E7245DD82ED0070EDB50030A1CE07D
:1015B000010A14E0030A07E07BD9DBCFEEFF020E3D
:1015C000DBCFEDFF1FD0F5D8196A17AE02D018682F
:1015D00019682CD8BCD819C0EEFF14D0EAD817BEB1
:1015E000186824D8B4D80ED063D9DBCFEFFF0AD067
:1015F0007BD905E1151C03E1F368F46810D0FCD831
:1016000001E3DB2A79D9A1EF06F0010EDBCF14F05C
:10161000020EDBCF15F014C0F3FF15C0F4FF3B0E34
:10162000E15C02E2E16AE552E16ECBD029D9020E1B
:1016300007EF0CF061D90800F550DF6E1200200EA4
:10164000E66E080E77EF0CF099EC0DF0E552E552DE
:10165000E552F3CF14F0F4CF15F00001F31C1200A3
:10166000146E156AD950010F4DD91450EE2615503D
:10167000ED221200185E000E195AF70E18C0DBFF9B
:10168000F80E19C0DBFF18C0E9FF19C0EAFF12000D
:10169000DBCFF4FFF350F45C1200DB50E76E040E76
:1016A000E7CFDBFF12000A0EDBCF14F00B0EDBCF0F
:1016B00015F00C0EDBCF16F00D0EDBCF17F014502B
:1016C0001510161017101200130EEECFDBFF140EBC
:1016D000EDCFDBFF130EDBCF14F0140EDBCF15F0D4
:1016E0000001800E15141200F70EDBCF18F0F80E73
:1016F000DBCF19F01200050EDB50E66ED950130F48
:1017000001D9E552E750EE6EED6A12000A0EDBCF0A
:1017100006F00B0EDBCF07F00C0EDBCF08F00D0E42
:10172000DBCF09F01200DBCFE6FF150EDBCFE6FFC3
:10173000050EDB50E552E724E552E7241200DB50AA
:10174000CED8010EF36E060EF3CFDBFF1200EE5083
:10175000EFCFEAFFE96E16C0EEFF17C0EEFF18C02C
:10176000EEFF1200D9CFE6FFDACFE6FFE1CFD9FFD7
:10177000E2CFDAFF1200DFCFE6FFE66AA1EC0FF05E
:10178000E552E552F3501200E76E080EE7CFDBFF9B
:101790001200EECF14F0EECF15F0EFCF16F0176A6F
:1017A0001200050EDBCF14F0150EDB50D880145458
:1017B0001200010EDBCF16F0020EDBCF17F0186A15
:1017C0001200E552E5CFDAFFE7CFD9FF12000A0E8B
:1017D00014C0DBFF0B0E15C0DBFF1200D9500A0F3F
:1017E00082EF0CF0F36E070EF3CFDBFF1200EECFAB
:1017F00014F0EFCF15F01200010EDB2A020E1200DA
:10180000FC0EDBCFE6FFFD0EDBCFE6FF1200145E21
:10181000000E155AF70E14C0DBFFF80E15C0DBFFE3
:1018200014C0E9FF15C0EAFF1200DA20EA6EEF2AC1
:10183000EECFF6FF000EEF22EECFF7FFEF22EECF56
:10184000F8FF1200040EDBCFE6FF130EDB50E5526B
:10185000E75C9ADFDB5004DF060EDB501200090E56
:10186000DB500A0DF350DF24D00FE76E090EE7CFEF
:10187000DBFF1AEF0BF0DB50F36E050E48EF0BF0B9
:10188000F70EDBCF14F0F80EDBCF15F01200DFCF30
:10189000E6FF24EF0BF028DF030EECDEC9EF0BF0C0
:1018A00076EC06F0E552E552E552E55200091200E9
:1018B000BDDEEE50EFCFEAFFE96E010E1200130E0F
:1018C000DB50F36E040E48EF0BF0040EDB50F36EAA
:1018D000090E48EF0BF0DBCFE6FF24EF0BF0E76ECD
:1018E000050EE7CFDBFF12008BDF47EF0CF0DBCFFD
:1018F000E6FF86DF50EF0CF0D950F90FE96EFF0ECE
:0E19000015EF0CF0E96E000EDA20EA6E120010
:02190E00006A6D
:101910000EAE8DEF0CF00E6C001E09AE92EF0CF0C7
:10192000096C001EDFEC0FF009BE9CEF0CF000AE5E
:10193000000C096C056C000C00BE99EF0CF00188DE
:10194000FF0C006A0EAEAAEF0CF00D6C0E1EE86ADA
:101950000E22001E09AEB2EF0CF0086C091EE86AF8
:101960000922001E8BEC0FF009BEC2EF0CF000AE96
:10197000000C086C091EE86A0922046C051EE86A5E
:101980000522000C00BEB9EF0CF00188FF0C09C065
:1019900013F008C012F008500D02F4CF07F0F3CF97
:1019A00006F009500E02F4CF09F0F3CF08F00D0253
:1019B000F3500726F4500822E86A092212500E025A
:1019C000F3500726F4500822E86A09220EAEEDEF24
:1019D0000CF01250085E1350095A13AE000C0D5053
:0819E000085E0E50095A000CCC
:0819E800D9CFE6FFDACFE6FFDC
:1019F000E1CFD9FFE2CFDAFFE652E652E652E652F5
:101A0000D950F90F146EFF0EDA20156E020E14C0B5
:101A1000DBFF030E15C0DBFF020EDBCFE6FF030E7C
:101A2000DBCFE6FFF90EDBCFE6FFFA0EDBCFE6FFFA
:101A3000FB0EDBCFE6FFD950FC0FE66EFF0EDA207F
:101A4000E66E8CEC06F0146E070EE15C02E2E16AD1
:101A5000E552E16E1450F3CFDEFFF4CFDDFFFC0E54
:101A6000DBCFE9FFFD0EDBCFEAFFEF6ADECF14F03C
:101A7000DDCF15F014C0F3FF15C0F4FF040EE15CD8
:101A800002E2E16AE552E16EE552E5CFDAFFE7CF27
:041A9000D9FF120068
:0C1A94002A0EF66E000EF76E000EF86EC3
:101AA00001010900F550236F0900F550246F03E18F
:101AB000236701D03DD00900F5501E6F0900F55095
:101AC0001F6F0900F550206F09000900F550E96EFD
:101AD0000900F550EA6E090009000900F550216F70
:101AE0000900F550226F09000900F6CF25F1F7CF64
:101AF00026F1F8CF27F11EC1F6FF1FC1F7FF20C165
:101B0000F8FF0101215302E1225307E00900F550DB
:101B1000EE6E2107F8E22207F9D725C1F6FF26C1AC
:101B2000F7FF27C1F8FF01012307000E245BBFD791
:021B30001200A1
:0E1B3200D9CFE6FFDACFE6FFE1CFD9FFE2CF51
:101B4000DAFFFB0EDBCF14F0FC0EDBCF15F000014B
:101B5000800E15141AE1FB0EDBCFE9FFFC0EDBCF84
:101B6000EAFFEECFF3FFEDCFF4FFEE2A000EEF22F7
:101B7000F3CFE9FFF4CFEAFFFD0EDBCFEFFFEF502D
:101B8000156AF36E15C0F4FF10D0FB0EDB50FE0893
:101B900006E1FD0EDBCFE6FFD1EC0FF005D0FD0E28
:101BA000DBCFE6FF06EC10F0E552E552E5CFDAFFB9
:061BB000E7CFD9FF12008F
:0A1BB600D9CFE6FFDACFE6FFE1CF5A
:101BC000D9FFE2CFDAFFAC6AAB6AFD0EDBB0AC88BE
:101BD000DBA202D0AC8CAB8CDBB4AC8EDBA602D02B
:101BE000AB8801D0AB8ADBA802D0AC8401D0AC9426
:101BF0009E98DBAC02D09D8A01D09D9A9E9ADBAE66
:101C000002D09D8801D09D98FB0EDB50AF6EFB0E7D
:101C1000FC0EDBCF15F015C014F0156A1450B06E31
:101C2000AC8AAB8EE552E5CFDAFFE7CFD9FF1200E1
:101C300006500B02F3CF02F0F4CF03F00C02F35086
:101C40000326000EF420046E06500D02F350042605
:101C5000000EF420056E06500E02F35005260750C4
:101C60000B02F3500326F4500422000E0522075005
:101C70000C02F3500426F450052207500D02F350D5
:101C8000052608500B02F3500426F4500522085094
:101C90000C02F350052609500B02F35005261200E2
:101CA000FE0EE3CFE9FFFF0EE3CFEAFFF36AF46A2B
:101CB000EE5203E0F34AF42AFBD71200FF0EE3CF03
:101CC000F8FFE552FF0EE3CFF7FFE552FF0EE3CF3B
:101CD000F6FFE552E66AE66AE66A0900F55209E0AF
:101CE000FD0EE32A05E1FE0EE32A02E1FF0EE32AE0
:101CF000F4D7FD0EE3CF07F0FE0EE3CF08F0FF0EA2
:061D0000E3CF09F0120020
:0A1D0600D9CFE6FFDACFE6FFE1CF08
:101D1000D9FFE2CFDAFFE652E652DF6AFB0EDB5074
:101D2000DF5C18E29EAAFED722EC0FF0E76E010EF0
:101D3000E7CFDBFFFC0EDBCFE9FFFD0EDBCFEAFFD9
:101D4000010EDBCFEFFFFC0EDB2AFD0E01E3DB2AE9
:101D5000DF2AE4D7E552E552E552E5CFDAFFE7CFD7
:041D6000D9FF120095
:0C1D6400614025642E25644025642E2576
:101D70006440256440256440256440006240256439
:101D80002E25644025642E256400624025642E259E
:101D9000644025642E256440256440256440256404
:101DA0004000614025642E25644025642E25640092
:101DB000D9CFE6FFDACFE6FFE1CFD9FFE2CFDAFFF6
:101DC000ACA2FED7FC0EDBCFE9FFFD0EDBCFEAFFB6
:101DD000EF50E66E74EC0FF0E552FC0EDBCFE9FF3E
:101DE000DB2AFD0EDBCFEAFF01E3DB2AEF50E8E15F
:0C1DF000E552E5CFDAFFE7CFD9FF120083
:041DFC00056A046A06
:101E0000036A026A200EE76ED89006360736083657
:101E1000093602360336043605360B50025C0C5088
:101E200003580D5004580E50055809E30B50025E3C
:101E30000C50035A0D50045A0E50055A062AE72E2C
:041E4000E4D71200D1
:0C1E4400D9CFE6FFDACFE6FFE1CFD9FFEF
:101E5000E2CFDAFFE652F20E0001FB17ABAC03D083
:101E6000FB91ABB0FB81ABB4FB85ABB2FB87AE5053
:101E7000DF6EDF50E552E552E5CFDAFFE7CFD9FF5D
:021E800012004E
:0E1E8200D9CFE6FFDACFE6FFE1CFD9FFE2CFFE
:101E9000DAFF3F0EC716C66AC56AFD0EDB50C612D2
:101EA000FC0EDB50C71294869488C68AE552E5CFB3
:081EB000DAFFE7CFD9FF1200B1
:081EB800D9CFE6FFDACFE6FF07
:101EC000E1CFD9FFE2CFDAFFFD0EDB50C96EC6AE1F
:101ED00002D0FF0E03D0C7B0FED7000EE552E5CF0B
:081EE000DAFFE7CFD9FF120081
:081EE800D9CFE6FFDACFE6FFD7
:101EF000E1CFD9FFE2CFDAFFACAC04D0AC90000167
:101F0000FBB3AC80FD0EDB50AD6EE552E5CFDAFFE2
:061F1000E7CFD9FF12002B
:0A1F1600056A046A100EE76ED89009
:101F200008360936043605360D50045C0E50055847
:101F300005E30D50045E0E50055A082AE72EF0D72F
:021F400012008D
:0E1F4200F36AF46AFF0EE124E96EFF0EE2205E
:101F5000EA6EED6607D02F0EEF6404D03A0EEF6004
:061F600001D0F32A12007B
:0A1F6600FF0EE3501B6E480E01D081
:101F70004C0EE76EE72EFED7E76AE72EFED71B2E44
:061F8000F7D7000012007B
:0A1F860015EE00F025EE00F0F86AF9
:101F9000019C4AEC0DF007EC10F0C5EC02F0FBD709
:021FA00012002D
:0E1FA200FF0EE350ACBA04D0AF6AAB8EAC8A2F
:0E1FB000949CACA2FED7AD6EF36EF46A1200E4
:021FBE00056AB2
:101FC000080EE76ED890093605360E50055C02E320
:0A1FD000056E092AE72EF7D712006C
:061FDA00FF0EE350E84E8B
:101FE0001200000000D000D000D0E82EFAD7120076
:101FF000303132333435363738396162636465667F
:0120000000DF
:0A200200C586C7A0FED7C950120022
:02200C001200C0
:02200E001200BE
:1020100000000000000000000000000000000000C0
:0E2020000000000000000000000000000000B2
:020000040030CA
:0100010002FC
:010003001EDE
:010005008377
:010006008178
:00000001FF
